:020000040800F2
:1000000090070020890100084B1F00083B160008DC
:10001000491F0008AF0200080B2100080000000083
:100020000000000000000000000000004F1F00085A
:10003000B1020008000000004D1F0008C51F0008A5
:10004000A3010008A3010008A3010008A301000800
:10005000A3010008A3010008A3010008A3010008F0
:10006000A3010008A3010008A3010008A3010008E0
:10007000A3010008A3010008A3010008A3010008D0
:10008000A3010008A3010008A3010008A3010008C0
:10009000A3010008A3010008A3010008A3010008B0
:1000A000A301000829200008A3010008A3010008FB
:1000B000A3010008A3010008A3010008A301000890
:1000C000A3010008A3010008A3010008A301000880
:1000D000A3010008A3010008A3010008A301000870
:1000E000A3010008A3010008A301000800F002F822
:1000F00000F03AF80AA090E8000C82448344AAF188
:100100000107DA4501D100F02FF8AFF2090EBAE885
:100110000F0013F0010F18BFFB1A43F0010318473B
:100120003835000058350000103A24BF78C878C12F
:10013000FAD8520724BF30C830C144BF04680C60ED
:10014000704700000023002400250026103A28BF35
:1001500078C1FBD8520728BF30C148BF0B60704739
:100160001FB51FBD10B510BD00F06CF81146FFF7AC
:10017000F7FF02F05FF900F08AF803B4FFF7F2FF2F
:1001800003BC00F08DF8000009488047094800478B
:10019000FEE7FEE7FEE7FEE7FEE7FEE7FEE7FEE737
:1001A000FEE7FEE704480549054A064B7047000094
:1001B00027200008ED000008900100209007002093
:1001C00090030020900300204FF0000200B513467A
:1001D00094469646203922BFA0E80C50A0E80C5067
:1001E000B1F12001BFF4F7AF090728BFA0E80C5018
:1001F00048BF0CC05DF804EB890028BF40F8042B11
:1002000008BF704748BF20F8022B11F0804F18BF7D
:1002100000F8012B704770477047704710B500F029
:1002200009F8006810BD10B5044600F003F804603A
:1002300010BD0000004870473001002000487047A2
:10024000300100207546FFF7F9FFAE46050069460C
:10025000534620F00700854618B020B5FFF7A2FFEF
:10026000BDE820404FF000064FF000074FF00008B7
:100270004FF0000B21F00701AC46ACE8C009ACE838
:10028000C009ACE8C009ACE8C0098D46704710B59C
:100290000446AFF300802046BDE81040FFF76DBF75
:1002A00001491820ABBEFEE7260002007047FEE7BA
:1002B000704772B6FEE7000070B5044600F004F91E
:1002C0000546601C02D004480078044400F0FCF8A5
:1002D000401BA042FAD370BD680000202DE9F84F02
:1002E000DFF8B8910024A9F1040B23460F2709F188
:1002F000040AABF1040EC9E00125A5402A40AA4238
:100300007DD1674ED1F804C0ACEB0608B44532D0BD
:1003100014DCBCF1030F3AD009DCBCF1000F2AD089
:10032000BCF1010F1CD0BCF1020F31D11DE0BCF1BA
:10033000110F17D0BCF1120F2AD119E0B8F5881FA0
:1003400019D006DCB8F5803F15D0B8F5801F1FD155
:1003500011E0B8F5001F0ED0B8F5041F18D10AE05F
:10036000CB6815E0CB681B1D12E0CB6808330FE0AB
:10037000CB680C330CE08B682BB1012B4FF00803DA
:1003800003D0456104E0042302E0056100E000239E
:10039000FF2A01D8064601E000F104064FEA840571
:1003A00001D9A5F12005D6F8008007FA05FC28EA56
:1003B0000C0803FA05F548EA0508C6F800804D6800
:1003C000ED0062D5374DAE6946F00106AE61AD690C
:1003D00024F0030605F001050095334D06EB050CEE
:1003E000DCF80850A607360F07FA06F825EA0805D4
:1003F000DFF8B880404503D14FF0000817E044E033
:10040000DFF8AC80404502D14FF001080FE0DFF883
:10041000A480404502D14FF0020808E0DFF8988040
:10042000404502D14FF0030801E04FF0040808FAFC
:1004300006F848EA0508CCF808804D68D9F800604D
:10044000ED024D4601D5164300E096432E604D68FF
:10045000DAF80060AD02554601D5164300E0964338
:100460002E604D68DBF80060AD035D4601D5164394
:1004700000E096432E604D68DEF80060ED0375469F
:1004800001D5164300E096432E60641C0D682A4691
:10049000E5407FF431AFBDE8F88F0000080401406B
:1004A000000011100010024000000140000801404F
:1004B000000C014000100140001401400AB101612C
:1004C00070470904FBE7000001488068704700009E
:1004D0006800002070B5040025D094F83D00002588
:1004E00020B984F83C50204600F02EFB242084F8EC
:1004F0003D002068016821F0010101602068016869
:1005000041F4004101602068016821F4004101606C
:1005100000F080FC4D4A6168914201D84C4900E0EE
:100520004C49884201D2012070BD4B492368B0FB81
:10053000F1F15E6826F03F060E435E606368934209
:1005400006D94FF4967359434FF47A73B1FBF3F124
:100550002368491C1E6A26F03F0631431962616810
:10056000914210D84900401EB0FBF1F2521CC2F378
:100570000B02042A01D2042022E0B0FBF1F0401C5F
:10058000C0F30B001CE0A268F2B301EBC10303EB64
:100590000116431EB3FBF6F35B1C43F480431B05BB
:1005A00049D092B301EBC10202EB0111401EB0FB36
:1005B000F1F0401CC0F30B0040F4804040F40040D8
:1005C0002168CA694CF6FF739A431043C861D4E9A5
:1005D000071001432068026822F0C0021143016045
:1005E000D4E9030101432068826848F2FF339A434B
:1005F00011438160D4E9050108432168CA6822F0EB
:10060000FF021043C86001E00EE016E020680168B8
:1006100041F0010101602564202084F83D0025633C
:1006200084F83E50002070BD01EB4106431EB3FB31
:10063000F6F35B1CB3E70120C2E701EB4101401E6A
:10064000B0FBF1F0401CC0F30B00B7E7A08601003F
:1006500080841E0000093D0040420F002DE9FF4F3D
:1006600081B089460446FFF72FFF054694F83D0008
:100670004FF0000820287DD119230122504920463F
:10068000009501F0F1F8002874D194F83C0001289D
:1006900070D0012084F83C0020680168C90703D1AC
:1006A000016841F0010101602068016821F40061E6
:1006B0000160242084F83D00002626644148E06261
:1006C0004FF0011B20272068016841F48071016010
:1006D0000095002259462046049B01F0C5F850B110
:1006E00020680068C00502D54FF400702064032024
:1006F00005B0BDE8F08F216809F0FE000861FFF742
:10070000E3FE2168054648694969C0F34000C1F32A
:1007100080214FF0A00A0FE0FFF7D6FE411B04989E
:10072000814200D808B984F83DA021684869496928
:10073000C0F34000C1F3802194F83D20A02A02D0EC
:1007400008B90029E8D084F83D7020684169C943A0
:10075000890716D4016841F400710160206841697D
:1007600080691923012216492046009501F07CF882
:10077000B8B900E021E084F83D7084F83C600020C6
:10078000B6E7016841F40071016021686FF4806090
:100790004861192301220A492046009501F064F8B6
:1007A00008B10120A4E7039808F1010880458AD325
:1007B00084F83D7084F83C60F3E7022098E700007D
:1007C000020010000000FFFF2DE9FF4F83B000255D
:1007D000DDE910799A4693460446DDF84880009595
:1007E000FFF772FE064694F83D0020287CD11923BD
:1007F000012285492046009601F036F80028F5D1FF
:1008000094F83C0001286FD0012084F83C00206857
:100810000168C90703D1016841F001010160206846
:10082000016821F400610160222084F83D0040202D
:1008300084F83E0025646762A4F82A90608D2085C4
:100840007248E062CDE9008653465A462046049934
:1008500000F00CFF00287DD1208DDFF8B491202717
:1008600068B1012814D00228206801681ED041F424
:10087000806101602068416980690090B6E020686D
:10088000416981690091016841F400710160ADE046
:100890002068016821F48061016072B620684169B6
:1008A00081690091016841F400710AE041F400613E
:1008B000016072B62068416981690091016821F484
:1008C0008061016062B691E0032868D801280CD0ED
:1008D000022843464FF000024946204600960FD0BA
:1008E00000F0C2FFB0BB10E08BE03246414620462C
:1008F00001F060F870BB20680069616A08706CE004
:1009000000F0B2FF30BB72B634E02068016821F419
:100910008061016072B620680069616A0870606A6F
:10092000401C6062208D401E2085608D401E6085C9
:10093000384846F2A8110068B0FBF1F0C0EBC000E7
:1009400000EB80000090401E009008D020684069B5
:10095000C04300E029E040070CD50098F3E744F8D5
:10096000305F6773A573206940F02000206162B694
:1009700025731AE02068016841F400710160206865
:100980000069616A0870606A401C6062218D491EBE
:100990002185618D491E618562B621681BE0324662
:1009A0004146204601F006F818B1012007B0BDE825
:1009B000F08F20680069616A0870606A401C60629C
:1009C000218D491E2185618D491E618521684A69F5
:1009D000D24352070AD409690170606A401C606200
:1009E000208D401E2085608D401E6085208D002852
:1009F0007FF46AAF84F83D7084F83E5084F83C5030
:100A0000D4E70220D2E70000020010000000FFFF40
:100A100004000100740000202DE9FF4F83B09A46C6
:100A2000DDE9119793460446DDF84080FFF74CFD61
:100A3000054694F83D0020287FD119230122404922
:100A40002046009500F010FF002876D194F83C0075
:100A5000012872D0012084F83C0020680168C90791
:100A600003D1016841F0010101602068016821F4AF
:100A700000610160212084F83D00402084F83E00A0
:100A800000262664C4F82480A4F82A90608D20856E
:100A90002C48E062CDE9007553465A462046049939
:100AA00000F062FE70B930E02A463946204600F078
:100AB000B9FF58B1206C042804D12068016841F4C2
:100AC00000710160012007B0BDE8F08F606A216805
:100AD00000780861606A401C6062218D491E89B2FD
:100AE0002185628D521E628522685369DB435B0754
:100AF0000BD469B100781061606A401C6062208D7F
:100B0000401E2085608D401E6085208D0028CBD141
:100B10002A463946204600F07BFE0028CAD154F808
:100B20003D0B016841F400710160202004F81E09AA
:100B3000E67766770020C6E7FFE70220C3E70000FC
:100B4000020010000000FFFF10B586B000210091E8
:100B500001910291039100681349884222D1134CFC
:100B6000A06940F00800A061A069694600F0080093
:100B700004904FF4407000901220019003200390E5
:100B80000B48FFF7ABFB0B48416841F0E06141F0D7
:100B900002014160E06940F40010E061E06900F4A6
:100BA0000010049006B010BD005400400010024038
:100BB000000C0140000001400248816802781144A5
:100BC0008160704768000020074810B5016841F057
:100BD00010010160032000F075F80F2000F006F806
:100BE00000F024F8002010BD0020024070B50D4D2B
:100BF00004464FF47A712878B1FBF0F00A4909688D
:100C0000B1FBF0F000F0CCFA48B9102C07D200226A
:100C10002146501E00F036F800206C6070BD0120A7
:100C200070BD000068000020740000200C4808B56A
:100C3000816941F001018161816901F00101009147
:100C4000C16941F08051C161C06900F080500090DD
:100C50000448416821F0E06141F00071416008BD45
:100C60000010024000000140002809DB00F01F02D4
:100C7000012191404009800000F1E020C0F80011FE
:100C800070470000F0B40E4B1B680C46C3F3022300
:100C9000C3F10705042D00D90425191D072901D228
:100CA000002300E0DB1E012606FA05F1491E214063
:100CB00099409E40761E16403143F0BC01F03ABA8E
:100CC0000CED00E0064900F0070208684FF6FF034C
:100CD000184040EA0220034A1043086070470000B1
:100CE0000CED00E00000FA052DE9F0470F46050085
:100CF00061D0434E306800F00700B84209D2306836
:100D000020F0070038433060306800F00700B84238
:100D100051D128683B4C810712D5400703D5606844
:100D200040F4E06060602878000703D5606840F414
:100D3000605060606068A96820F0F000084360605F
:100D40002878C00728D06868012810D021680228B8
:100D500010D0890700292EDA616821F003010143D0
:100D60006160FFF7B1FB804641F288390DE02168F0
:100D70008903EFE78901EDE7FFF7A6FBA0EB080188
:100D8000494502D90320BDE8F0876068696800F032
:100D90000C00B0EB810FEFD1306800F00700B842D3
:100DA0000BD9306820F0070038433060306800F01D
:100DB0000700B84201D00120E5E72878400705D5B3
:100DC0006068E96820F4E060084360602878000704
:100DD00006D56068296920F4605040EAC10060606F
:100DE00000F028F86168084AC1F30311515CC8405B
:100DF0000649086006480068FFF7F8FE0020C2E7D1
:100E00000020024000100240A835000874000020B5
:100E10006C0000200448054900684968044AC1F391
:100E20000221515CC840704774000020001002404D
:100E3000B83500080E4A51680E4801F00C03042B27
:100E400011D0082B0FD10C48C1F38343C903C05CF8
:100E50000AD55168084AC1F34041921E515C054AC7
:100E60005043B0FBF1F0704704494843704700001D
:100E70000010024000127A009835000800093D0079
:100E80002DE9F84F040070D02078C04DC00749D03C
:100E90006868C0F38100012807D06868C0F381004A
:100EA000022809D16868C00306D52868800339D5AF
:100EB00060680028E7D035E06068B0F5803F0BD06F
:100EC00010B1B0F5A02F11D0286820F48030286030
:100ED000286820F4802002E0286840F480302860F0
:100EE000606890B1FFF7F0FA06460AE0286840F41F
:100EF00080202860F0E700BFFFF7E6FA801B642837
:100F000073D828688003F7D50CE0FFF7DDFA0646B2
:100F100005E000BFFFF7D8FA801B6428F0D82868E6
:100F20008003F7D420789A4E80074FF001094FF0E4
:100F3000000839D5686810F00C0F07D06868C0F356
:100F40008100022809D16868C00306D42868800798
:100F500014D52069012808D110E02069B0B1C6F885
:100F60000090FFF7B1FA074605E00AE1FFF7ACFA97
:100F7000C01B0228C4D828688007F7D52868616993
:100F800020F0F80040EAC10028600DE0C6F80080BB
:100F9000FFF79AFA074604E0FFF796FAC01B02280B
:100FA00023D828688007F7D4207800072CD5794803
:100FB000A169D9B1C0F80090FFF786FA074604E0AE
:100FC000FFF782FAC01B02280FD8686A8007F7D59E
:100FD00071484FF4FA510068B0FBF1F0009000BF87
:100FE0000098411E0091FAD20EE080E0C0F8008027
:100FF000FFF76AFA074604E0FFF766FAC01B02280B
:1010000075D8686A8007F7D42078400760D5E8690A
:101010000027C00008D4E86940F08050E861E86922
:10102000012700F0805000905C480168C90513D486
:101030000168834641F480710160FFF745FA8246FA
:1010400006E000BFFFF740FAA0EB0A0064284ED884
:10105000DBF80000C005F5D5E06801280AD008B12A
:10106000052813D0286A20F001002862286A20F0A1
:10107000040002E0286A40F001002862E06841F2C2
:10108000883B98B1FFF720FA82460BE0286A40F0CF
:1010900004002862EEE700BFFFF716FAA0EB0A0192
:1010A00059455AD8286A8007F6D50CE0FFF70CFAA4
:1010B000824605E0FFF708FAA0EB0A0159454CD833
:1010C000286A8007F6D41FB1E86920F08050E861F3
:1010D000E06988B36968C1F38101022944D002281C
:1010E000C6F8608004D0FFF7EFF9044638E034E03A
:1010F000FFF7EAF9074604E0FFF7E6F9C01B02280C
:101100002BD828688001F7D4206AB0F5803F05D13C
:101110006868A16820F4003008436860D4E90801D9
:101120000843696821F4741108436860C6F8609048
:10113000FFF7CAF9044606E025E000BFFFF7C4F94F
:10114000001B022809D828688001F7D51BE000BFE2
:10115000FFF7BAF9001B022802D90320BDE8F88F77
:1011600028688001F4D40EE00128F7D06868226A6C
:1011700000F48031914204D1616A00F47010884219
:1011800001D00120EAE70020E8E70000001002405B
:10119000000042428004424274000020007000407F
:1011A00010B5401EB0F1807F01D3012010BD4FF07B
:1011B000E02460610F21601700F0BCFF0020A061F7
:1011C00007202061002010BD7047704770B590F86F
:1011D0003C20012A26D0012480F83C40022280F8DD
:1011E0003D2003685A689D6822F070060A68324301
:1011F0005A600D4B02689A4208D0B2F1804F05D078
:101200000A4B9A4202D00A4B9A4204D1496825F00F
:1012100080031943916080F83D40002180F83C1024
:10122000084670BD022070BD002C01400004004043
:101230000008004010B5040003D094F83D0010B140
:1012400007E0012010BD002084F83C00204600F09B
:101250001FF8022084F83D00211D206800F0EAFEFE
:10126000012084F8460084F83E0084F83F0084F8AA
:10127000400084F8410084F8420084F8430084F878
:10128000440084F8450084F83D00002010BD0000B3
:1012900008B500680B49884212D10B48816941F4B6
:1012A000006181618069002200F4006000900121EA
:1012B0001920FFF7E7FCBDE808401920FFF7D4BC70
:1012C00008BD0000002C01400010024090F83D10C5
:1012D000012901D001207047022180F83D100168EA
:1012E000CA6842F00102CA6000680B49884208D00F
:1012F000B0F1804F05D00949884202D008498842A0
:1013000004D1816801F00701062903D0016841F08A
:101310000101016000207047002C014000040040E2
:101320000008004070B5044690F83C0000250128F4
:1013300017D0012684F83C60022084F83D00206824
:10134000826822F0770222F47F4282600868502887
:1013500038D00DDC20284FD005DC90B3102811D1F7
:101360004AE0022070BD302846D040280AD13BE038
:1013700060282FD070280DD0B0F5805F03D0B0F575
:10138000005F12D0012584F83D60002084F83C0005
:10139000284670BDCB68D1E90121206800F080FEAD
:1013A0002068816841F0770109E0CB68D1E901212B
:1013B000206800F075FE2068816841F480418160FA
:1013C000E1E719E0CA684968206800F07BFE502117
:1013D000206806E0CA684968206800F084FE602141
:1013E000206800F067FECEE7CA684968206800F010
:1013F00069FE40212068F4E7226801461046F0E7C4
:10140000704770B50446006801694FF00005C94394
:10141000890715D4C168C943890711D4E91E016140
:1014200001202077206880698007204602D0FFF7DE
:10143000E7FF04E000F098F8204600F096F82577E2
:1014400020680169C943490717D4C168C9434907DE
:1014500013D46FF0040101610220207720688069B5
:1014600010F4407F204602D0FFF7CAFF04E000F0EE
:101470007BF8204600F079F8257720680169C94398
:10148000090716D4C168C943090712D46FF00801CF
:101490000161042020772068C0698007204602D0BF
:1014A000FFF7AEFF04E000F05FF8204600F05DF8C3
:1014B000257720680169C943C90617D4C168C943A3
:1014C000C90613D46FF0100101610820207720684D
:1014D000C06910F4407F204602D0FFF791FF04E07E
:1014E00000F042F8204600F040F8257720680169B6
:1014F000C943C90708D1C168C943C90704D1891EB6
:101500000161204600F032F820680169C9430906EC
:1015100009D4C168C943090605D46FF0800101618F
:101520002046FFF751FE20680169C943490609D4E6
:10153000C168C943490605D46FF0400101612046E6
:1015400000F07AF820680169C94389060BD4C168A4
:10155000C943890607D46FF0200101612046BDE828
:101560007040FFF732BE70BD704770472DE9F047FD
:101570002A49884250D100F0C9FB00F0FFFB284CFB
:10158000D4E901573946284601F042FD01F0ACFC90
:1015900000F040FEDFF88C800022434601F0CAF9DB
:1015A000DFF88490214B4A4601F06CF8204EC6E9E2
:1015B00000013946084601F005FE0746294608465F
:1015C00001F000FE394601F0BBFC01F08DFC00F09B
:1015D00051FF05460F46206801F086FC2A463B462F
:1015E00001F050F800F016FE0022434601F0A2F987
:1015F0004A46104B01F046F8C6E9020100F060FFD0
:10160000E16800F03BFAD6E9000100F059FF2169DA
:10161000BDE8F04700F0B8BABDE8F087E800002068
:1016200078000020008066401F85EB51B81E0940FD
:1016300058000020B81E09C07047FEE701684A69DB
:10164000D24352050FD46FF480624A61002140F802
:10165000301F202242738173026942F0040202614A
:101660000173012070470020704700002DE9F84FFA
:101670000446006889460B9D01689846174641F468
:10168000806101602068016841F48071016000950B
:101690004FF0011B0022594620460A9B00F0E4F857
:1016A0004FF4007A40B120680068C00501D5C4F845
:1016B00040A00320BDE8F88F216809F0FE00086112
:1016C0002B46284920460A9A00F016F9F0BB2068FC
:1016D0004169806900902A4620460A9900F0A2F9E3
:1016E00040B1206C04283AD12068016841F40071AF
:1016F000016034E0FEB2B8F1010F09D02168380A68
:1017000008612A4620460A9900F08CF90028E8D1A1
:10171000206806612A4620460A9900F083F90028CD
:10172000DFD12068016841F48071016000950022DA
:10173000594620460A9B00F097F80028B3D121684B
:1017400009F0FF0040F00100086100E007E02B46CF
:10175000044920460A9A00F0CFF80028AAD00120B8
:10176000A8E70000020001002DE9F84304460068E4
:101770000D46DDE9089701689846164641F48071E8
:1017800001604B4600224FF001112046009700F007
:101790006BF848B120680068C00502D54FF40070AE
:1017A00020640320BDE8F883216805F0FE0008618D
:1017B0003B464A461549204600F09EF888B9206805
:1017C0004169806900903A464946204600F02AF96E
:1017D00048B1206C042804D12068016841F40071EC
:1017E00001600120DEE7F5B2B8F1010F09D02168F0
:1017F000300A08613A464946204600F013F90028AD
:10180000E7D1206805610020CCE70000020001005C
:1018100070B516460D4604461EE02046FFF70EFF43
:1018200008B1012070BD681C16D0FEF74DFE801B6C
:10183000A84200D885B920684069C04340070BD54D
:10184000002044F8300F20216173A073216941F01A
:10185000200121612073E4E720684069C04340070C
:10186000DBD4002070BD00002DE9F04798461746F4
:101870000D460446C1F30746DDF820902AE000BF7C
:10188000B8F1FF3F26D0FEF71FFEA0EB090141454E
:1018900002D8B8F1000F1DD12068012E16D0806942
:1018A00025EA00000004000C12D00020B84211D13B
:1018B000002044F8300F20216173A073216941F0AA
:1018C0002001216120730120BDE8F0874069E7E72E
:1018D0000120EBE72068012E0AD0806925EA00008C
:1018E0000004000C06D00020B842C9D00020EBE76D
:1018F0004069F3E70120F7E72DE9F04798461646DF
:101900000D4604464FF000094FF0200AC1F3074787
:1019100023E020684069C043400515D42068016871
:1019200041F40071016021686FF480604861C4F87F
:10193000309084F83DA084F83E90216C41F0040181
:10194000216484F83C9021E0701C06D0FEF7BCFDB9
:10195000A0EB0800B04203D816B1012F1FD021E040
:101960002068012F15D0806925EA00000004000CD2
:1019700018D000BF44F8309F84F80DA084F80E9072
:10198000216941F02001216184F80C900120BDE81B
:10199000F087406925EA00000004000CEAD12068C5
:1019A000406901E02068806925EA00000004000C1D
:1019B000AFD1ECE72DE9F041002590460E460446F4
:1019C000202728E04069C043C0060CD454F8301BDF
:1019D0006FF01000486144F810596777A577206AC6
:1019E0002062257714E0FEF76FFDA0EB0800B042FF
:1019F00000D886B920684069C04340060BD544F83A
:101A0000305F6773A573206940F020002061257363
:101A10000120BDE8F08120684169C9434906D1D45D
:101A20000020F6E770B516460D4604461EE0204637
:101A3000FFF704FE08B1012070BD681C16D0FEF748
:101A400043FD801BA84200D885B920684069C04387
:101A500000060BD5002044F8300F20216173A073DD
:101A6000216941F0200121612073E4E72068406989
:101A7000C0430006DBD4002070BD00002DE9F34F09
:101A8000404C83B008462169009101F071FCE16887
:101A9000884601F097FBA16A01F052FA04F1300583
:101AA0008346D5E901794946384601F049FA41466D
:101AB00001F088FB06462868216801F041FA3146AA
:101AC00001F056FCEE6882464146304601F07AFB52
:101AD0003946019001F042FC80464946019801F0E8
:101AE0003DFC81463046616801F02AFA019050467B
:101AF000A16801F025FA06463146504601F088FA01
:101B000007463146484601F083FA0646594603988F
:101B100001F02EFC394601F055FB594601F010FA50
:101B20000146A062039801F023FC314601F04AFB14
:101B3000009901F005FA20615146384601F042FB58
:101B4000514601F00BFC044628604146384601F03E
:101B500039FB414601F002FC0746686021463046E9
:101B600001F030FB494601F0F9FBA86039463046E8
:101B700001F028FB019901F0F1FBE86005B0BDE838
:101B8000F08F0000040000202DE9F34F404C83B09B
:101B90000846E169009101F0EBFBE168884601F03D
:101BA00011FBE16A01F0CCF904F140058346D5E967
:101BB00001794946384601F0C3F9414601F002FB7C
:101BC00006462868216801F0BBF9314601F0D0FBD8
:101BD000EE6882464146304601F0F4FA39460190FB
:101BE00001F0BCFB80464946019801F0B7FB8146F5
:101BF0003046616801F0A4F901905046A16801F0F7
:101C00009FF906463146504601F002FA0746314632
:101C1000484601F0FDF906465946039801F0A8FB35
:101C2000394601F0CFFA594601F08AF90146E062DF
:101C3000039801F09DFB314601F0C4FA009901F0D0
:101C40007FF9E0615146384601F0BCFA514601F097
:101C500085FB044628604146384601F0B3FA414608
:101C600001F07CFB074668602146304601F0AAFA85
:101C7000494601F073FBA8603946304601F0A2FAEC
:101C8000019901F06BFBE86005B0BDE8F08F000042
:101C9000040000207FB504464FF47A72012103A8A6
:101CA0008DE80700A1B2012375221748FEF78CFDCD
:101CB0009DF80C00682803D04FF0FF3004B070BDD1
:101CC00000258DF80C50A0B2012303AA6B2100F06F
:101CD00069F907208DF80C00A0B2012303AA19218D
:101CE00000F060F98DF80C50A0B2012303AA1C216A
:101CF00000F058F98DF80C50A0B2012303AA1B2163
:101D000000F050F90020D9E7940000202DE9FC41B3
:101D1000184806236A4600883B2180B200F018F973
:101D2000BDF8000040BA00B201F034FA0546BDF833
:101D30000200114C40BA00B201F02CFA8046BDF806
:101D4000040040BA00B201F025FA06466FF00D0714
:101D50003946284601F0E1FB20603946404601F053
:101D6000DCFB60603946304601F0D7FBA060BDE87F
:101D7000FC81000000000020780000202DE9FC41DB
:101D8000174806236A460088432180B200F0E0F835
:101D9000BDF8000040BA00B201F0FCF90546BDF8FC
:101DA0000200104C40BA00B201F0F4F98046BDF8D0
:101DB000040040BA00B201F0EDF90B4F0646394677
:101DC000284601F025F9E0603946404601F020F947
:101DD00020613946304601F01BF96061BDE8FC81A5
:101DE00000000020780000200000034338B50B48B5
:101DF00002236A460088412180B200F0A9F8BDF8AC
:101E0000000040BA00B201F0C5F9054C054901F0E7
:101E1000FFF8054901F094F8A06138BD00000020EA
:101E2000780000200000AA43B81E124270B586B0A8
:101E3000002418480094019402940394816941F0AD
:101E400020018161816901F020010491816941F0E3
:101E500008018161816901F008010491816941F003
:101E60000401816180690C4E00F004004FF440656C
:101E70000490002229463046FEF720FB0120009501
:101E8000CDE901040220039069463046FEF726FAA8
:101E900006B070BD00100240000C01400D4810B5A6
:101EA0000B4901600C49416000214FF48042816080
:101EB000C0E9031241618161C1610162FEF70AFB61
:101EC000002803D0BDE81040FEF7F3B910BD0000B4
:101ED0000054004094000020801A060010B586B01F
:101EE0000024184800940194029403940494144923
:101EF0000594016040F2F311C0E9011441F61F415D
:101F0000C0E9031444618461FFF794F908B1FEF756
:101F1000D0F94FF48050009069460A48FFF702FA62
:101F200008B1FEF7C6F9049404A906480594FFF722
:101F30004DF9002801D0FEF7BCF906B010BD000035
:101F4000002C0140E8000020FEE7FEE770477047E4
:101F50003EB54FF47A748DE81C000A460146012311
:101F60000248FEF731FC40B23EBD00009400002064
:101F700070B501244FF47A752B460122214607489B
:101F8000FEF76CFB28B1641CE4B2FF2CF4D3D12023
:101F900070BD03480480204670BD000094000020FE
:101FA000000000203EB54FF47A748DE81C000A460C
:101FB000014601230248FEF72FFD40B23EBD00005E
:101FC00094000020FEF7F8BD30B58FB02821684698
:101FD000FEF7FAF814210AA8FEF7F6F80121080422
:101FE000CDE900100024029402250491CDE90750A8
:101FF0004FF4E01009906846FEF742FF08B172B650
:10200000FEE70F20CDE90A054FF48060CDE90C40D2
:1020100002210AA80E94FEF767FE002801D072B6CE
:10202000FEE70FB030BD70470148FFF7EAB9000086
:10203000E8000020F0B50268164B174C174D4FF022
:102040008047984205D0B84203D0A04201D0A842B0
:1020500003D122F070064A683243984205D0B84254
:1020600003D0A04201D0A84203D122F44074CA6830
:1020700022434C6922F08002224302608A68C262D5
:102080000A688262984201D10969016301214161B4
:10209000F0BD0000002C014000040040000800409A
:1020A00010B5846842EA032224F47F440A432243A1
:1020B000826010BD826822F070020A4342F007017C
:1020C0008160704710B5036A046A24F00104046259
:1020D000846924F0F00444EA021423F00A020A435B
:1020E0008461026210BD10B5036A046A24F0100412
:1020F0000462846923F0A00324F4704444EA0232A9
:1021000043EA01118261016210BDFEE7490050EA15
:10211000C12018BF04204A0D18BF40F0010040F252
:10212000FF72B2EB515F08BF40F00200012808BF08
:10213000052070470907090E002804DB00F1E020A4
:1021400080F80014704700F00F0000F1E02080F8E4
:10215000141D70472DE9F0414F1E00EBC7010446E6
:10216000D1E9000115461E4637F006020DD02A4679
:10217000334600F0DFFB7F1E04EBC703D3E90023E7
:1021800000F0D0F937F00602F1D1022F25D0042F4C
:1021900013D0062F18BFBDE8F0812A46334600F061
:1021A000C9FBD4E90A2300F0BDF92A46334600F002
:1021B000C1FBD4E9082300F0B5F92A46334600F004
:1021C000B9FBD4E9062300F0ADF92A46334600F006
:1021D000B1FBD4E9042300F0A5F92A46334600F008
:1021E000A9FBD4E9022300F09DF92A46334600F00A
:1021F000A1FBD4E90023BDE8F04100F093B901222E
:1022000001F05DB9024A0020110701F058B9000041
:1022100001FDFFFF2DE9F84F04460D4621F0004077
:1022200000917349814211DC7249884201DC06D178
:102230002CB120462946BDE8F84FFFF7E0BF6E48B5
:10224000002DCCBF6D496E49BDE8F88F6D498142C4
:1022500011DD6D498142D8BF4FF0FF366DDD20465C
:102260002946FFF753FF042808BFFFF7CBFF20469E
:102270002946BDE8F88F6549654F25F00045814244
:1022800033DD6449814219DD002632464FF0804338
:102290002046294600F046F980468A46012220461B
:1022A000294601F00CF900223B4600F033FD42467E
:1022B000534600F0E7F904460D463EE001260022B1
:1022C000BA463B462046294600F02CF980460F4688
:1022D000002253462046294600F01CFD42463B465C
:1022E00000F0D0F904460D4627E04B4981421BDD42
:1022F000DFF828A10226002253462046294600F096
:1023000019FB00223B4600F00DF980460F460022E3
:1023100053462046294600F0FDFC42463B4600F06D
:10232000B1F904460D4608E0032622462B4600205C
:102330003B4900F0A7F904460D4622462B461046BD
:10234000194600F0F7FA8B46824602460B4600F02B
:10235000F1FA07460246334888460B460621784480
:10236000FFF7F8FE52465B4600F0E4FA82462E483C
:102370008B463A46434605217844FFF7EBFE3A4642
:10238000434600F0D7FA02460B46002E5046594607
:102390000CDA00F0C7F822462B4600F0CBFA01B069
:1023A00022462B46BDE8F04F00F0C2BB00F0BAF861
:1023B00022462B4600F0BEFA1C4A7A4402EBC603C2
:1023C000D3E9002300F0A6FC22462B4600F0A2FC35
:1023D000174A7A4402EBC603D3E9002300F0A8FBB6
:1023E000009A002AB8BF81F00041BDE8F88F0000D4
:1023F000000010440000F07F182D4454FB21F93FE9
:10240000FB21F9BF0000DC3F0000203E0000F33F4D
:102410000000F03F0000E63F008003400000F83F6E
:102420000000F0BFC612000084120000221200005B
:10243000EA110000FEF7C8FBFFF7C6FDFFF7F6FC48
:10244000FFF72CFDFFF74AFDFFF792FDFFF722FC97
:102450000748FEF73BFF4FF4FA742046FDF72CFFC8
:10246000FFF754FCFFF78AFCFFF7C0FCF5E700001C
:10247000E80000202DE9F04106460F4600F064FB1D
:10248000041E0D4618BF0120284320F00040C0F173
:102490007F6000F1E040C00F0ED0301C18BF01205B
:1024A000384320F00040C0F17F6000F1E040C00FF1
:1024B00004BF0120FDF7B7FE20462946BDE8F081A4
:1024C00021F00042A2F16052B2F5801F01F00043FA
:1024D00028BFD2F17F6C0BD95FEA001C43EAC2022D
:1024E00042EB507018BF704728BF20F001007047C2
:1024F000B2F5801FBCBF184670474FEA410C1CF56F
:10250000001F02D2084600F024BF70B500F0BCFAEC
:1025100000000089FFF7F6BF4FF00040A0F58000F3
:102520007047000010B591EA030F48BF83F00043E5
:1025300000F1F883841A71EB030C05D2121943EBF6
:102540000C03001B61EB0C01DFF824E14FEA11548E
:10255000A4EB135C1EEA430F18BF9EEA445F73D0DE
:1025600023EA0E03DCF1200E21EA045143F4801328
:1025700032D322FA0CFE10EB0E0023FA0CFE41EBD4
:102580000E01CCF1200E03FA0EFE10EB0E0051F1FD
:102590000001B1F5801FCCF1200E32D201EB0451C5
:1025A00012FA0EF2BDE8104058BF7047401C38BF09
:1025B0005FEA420218BF7047002814BF20F00100F4
:1025C00041F100014FEA410313F5001F38BF704786
:1025D000A1F1C04100F0A6BA012A43EB0302ACF11D
:1025E000200CDCF11F0E32BF4FF0000E23FA0CF36B
:1025F00010EB030041EB0451B4EB115FD0D0A1EB21
:10260000045101F5801149085FEA300001EB0451E3
:102610000ED350F1000038BF12FA0EFE08D1BDE80B
:102620001040C9E7401C38BF5FEA4202CAD1C3E785
:10263000BDE810404FEA410313F5001F38BF704753
:10264000A1F1C04100F06EBA9EEA445F08D011EAE1
:102650005E0FBDE8104004BF01F00041002070474C
:10266000BDE8104070B500F00FFA00BF64FBBE3E3D
:102670000000E0FF02494FF0000000F0EEBE00BF96
:102680000000F87F2DE9C04130B4DFF8A0C23CEA79
:10269000111418BF3CEA131400F0EC8081EA030522
:1026A0001CEA111444EAD57418BF1CEA131500F093
:1026B000C780A4EB05044FF0004545EAC12145EA77
:1026C000C32341EA505143EA525304F17F749942C3
:1026D00004F500344FEAC0204FEAC22208BF9042FE
:1026E00000F09C804FEA13650FF24016765D4FEACA
:1026F000134506FB05F7C7F1807706FB07F74FEA9E
:10270000D737A7FB03687642C8F58038A7FB06CE0B
:1027100038BFA8F1010807FB08E64FF0000EA6FB42
:10272000028CE6FB03CEDCF1000CCEF1004E38BF8C
:10273000AEF1010EA6FB0C584FF000074FF000055C
:10274000E6FB0E87A1FB08C6A0FB07CE16EB0E0624
:1027500045F10005E1FB076515F1E04E7EBFA4F5EC
:1027600080345FEA46066D4116F1800745F10005A9
:102770004FEA17274FEA066647EA0567A6F1DE46E5
:10278000B6F1805F4FEA15251FD9384624F0010CB9
:1027900005EBC471BCF1FE6F01EB0C1102D8F0BC6B
:1027A000BDE8008124425CBF01F5801E9EEAC47F23
:1027B00002D4F0BCBDE80081244238D4F0BCA1F1C1
:1027C000C041BDE8004100F0ADB94FEAD22242EA73
:1027D00043524FEAD323A7FB02864FEAD02040EAB8
:1027E000415007FB03661EEA0E0F4FEAD12105FB9D
:1027F000026658BFA6EB0056B6EB00564FEA520EE3
:102800004EEAC37E18EB0E0E56EB530EBDD518EBF9
:1028100002085E417F1C55F10005B6E74FF48015B4
:102820004FF000074FF000064FF00008ADE7F0BC96
:102830004FF0000001F1C04101F00041BDE800810E
:1028400011EA0C1F0CEA131500D00CE013EA0C1F60
:1028500000F025804FF00000F0BC81EA030101F098
:102860000041BDE80081F0BCBDE8004181EA030100
:1028700000F058B9F0BCBDE8004170B500F004F9B3
:10288000097EFC3E00F007B881EA03014FF000002A
:1028900001F00041704781EA030100F043B9F0BC48
:1028A000BDE800414FF0000021497047FFFDFBF9F2
:1028B000F7F5F4F2F0EEEDEBE9E8E6E4E3E1E0DE73
:1028C000DDDBDAD8D7D5D4D3D1D0CFCDCCCBCAC8E5
:1028D000C7C6C5C4C2C1C0BFBEBDBCBBBAB9B8B70C
:1028E000B6B5B4B3B2B1B0AFAEADACABAAA9A8A8FF
:1028F000A7A6A5A4A3A3A2A1A09F9F9E9D9C9C9BCD
:102900009A99999897979695959493939291919077
:102910008F8F8E8E8D8C8C8B8B8A89898888878708
:102920008685858484838382828181800000FF077D
:102930000000F87FDFF848C170B51CEA111E1EBF09
:102940001CEA13159EEA0C0F95EA0C0F00F06F803D
:1029500081EA030423EA4C134EEAD47E21EA4C11A7
:1029600041F4801143F48013AE44A1FB024CA0FB60
:102970000365AEF17F7E361955EB0C05A1FB034CC8
:102980004CF10003A0FB021C16EB0C06654153F151
:102990000003094218BF46F0010613F4007F0BD173
:1029A0004FEA03314FEA0530340341EA155140EA5A
:1029B00016506FF003020AE04FEAC3214FEAC52028
:1029C000F40241EA555140EA56506FF0020202EB20
:1029D0002E4201EB025585EACE710AD05FEA440C23
:1029E00018BF24F0004450F1000041F1000120EA3A
:1029F000D47040F2FE7C624500D270BDA84214BF84
:102A00004FF080444FF04044002E08BF0024BEF138
:102A1000806FA8BFA1F1C041BDE8704080F2828004
:102A20004FF0000001F1C04101F0004170479EEA03
:102A30000C0F0CEA131518BF95EA0C0F06D04FF0D7
:102A4000000081EA030E0EF0004170BD00F01CF89A
:102A50008900013E00F007B800F009B84FEA430CC6
:102A60005FEA5C5C08D081EA030100F05BB84FEAE2
:102A7000410C5FEA5C5CF6D14FF000000149704701
:102A80000000FF070000F87F0EF1020E2EF0030E8B
:102A90005EF8046B364205D4012A43EB030515F5B5
:102AA000001F12D8012841EB010C1CF5001F0CD8A7
:102AB0000ED14FEAD17C15F5001F0CEB4C0C0CF13C
:102AC000020C08BF4CEBD37C04E04FF0080C01E093
:102AD0004FEAD37C0CEB4C0526FA05F606F0070608
:102AE000B6F1040C06D20EEB860CBDE870404CF03B
:102AF000010C6047DFE80CF0090B02024FF00041C7
:102B00004FF00000A1F5002170BD194610460128C4
:102B100051EB010418BFD4F5001484BF002001F06C
:102B2000004170BD0808A0F500114FEA310170475F
:102B300091EA030F10B581F000413FF5FBAC83F043
:102B4000004300F0EFB800002DE9F04101F5801CD2
:102B5000BCF5001FC0F2C3804FEA115C21EA0C51A2
:102B60000CF1FD0C41F480115FEA5C0C0CF5C07CAB
:102B700001D3400049413DA4890241EA90518702B6
:102B80008E0E0A0CA45D04FB04F602FB06F6C6F1E9
:102B90004046A4FB0662F60D46EA422606FB06F412
:102BA000A4FB01235242C3F1404338BF5B1EA6FB86
:102BB00002420024E6FB0324D20B42EA4446A6FB71
:102BC0000623A1FB02E2A3FB07E4A4184FF00002D6
:102BD00052F10002E3FB01426442C2F1404E38BFB1
:102BE000AEF1010EA6FB04234FF00002E6FB0E320D
:102BF000A2FB03464FF00004B61954F10004E2FBB7
:102C00000264A1FB06E6A4FB07E816EB08064FF0FA
:102C1000000858F10008E4FB01687642C8F140580A
:102C200038BFA8F10108A2FB06E4A3FB08E52D19B3
:102C30004FF0000454F10004E2FB0854A1FB05E648
:102C4000A7FB04E818EB06084FF0000656F1000653
:102C5000E1FB048618F1200556F10006A809A8F149
:102C60001B08B10908F03F08B8F10A0F40EA866076
:102C70001CD901EB0C51BDE8F08100BFFCF5EEE87A
:102C8000E2DDD8D3CFCBC7C3C0BDB9B6B4B1AEAC0B
:102C9000A9A7A5A3A19F9D9B9A9896959392908F83
:102CA0008D8C8B898887868584838281A0FB0068D0
:102CB00000FB01F208EB4208B8EB872807D534186F
:102CC00058EB0104D5D5401C51F10001D1E7341A6D
:102CD00078EB0104CDD4401E71F10001C9E75FEA31
:102CE0004C0C5FEA9C5C0DD105D34FF0000001F065
:102CF0000041BDE8F081BDE8F04170B5FFF7C4FECA
:102D00006DDBFFBEBDE8F0414FF0000000497047A9
:102D10000000F87F10B591EA030F48BF83F000432D
:102D20003FF508AC841A71EB030C07D212198CF032
:102D3000004C43EB0C03001B61EB0C01DFF8A4E13A
:102D40004FEA1154A4EB135C1EEA430F18BF9EEA2E
:102D5000445F00F0B08023EA6E03524221EA04513E
:102D6000C3EB6E0338BF5B1EDCF1200E25D322FAC5
:102D70000CFE10EB0E0043FA0CFE41EB0E01CCF101
:102D8000200E03FA0EFE10EB0E0051F10001CCF103
:102D9000200E29D412FA0EF201EB0451BDE81040C6
:102DA00058BF7047401C1CBFB2F1004F704700284D
:102DB0000CBF491C20F00100704712EB020E43EBE0
:102DC000030218BF4FF0010E4EEA4202ACF1200C94
:102DD000DCF11E0E54D943FA0CFE10EB0E0051F13B
:102DE000FF31CCF11E0ED5D50EF1010E12FA0EFEFA
:102DF000404141EB010101EB445C5FEA5C5C10D9AE
:102E000010EBDE7001EB045138BFBEF1004FBDE89E
:102E1000104018BF704700280CBF491C20F001006B
:102E2000704730D24FEAD42C11F5001124F400641D
:102E30001BD0B1FA81F20B3AA41AA41ED2F12003DE
:102E4000914030FA03F31943904001EBCC71002C10
:102E500001EB0451BDE81040A8BF704701F1C0412B
:102E60004FF0000001F000417047B0FA80F310FA13
:102E700003F100D110BDE41A173C4805C90AE4E784
:102E800001EB045110BD491001EB0451BDE81040A5
:102E90004FEA300002E04FF0000170474A0008BFDF
:102EA0000042F8D0B2F5001F28BF704701F0004182
:102EB0004FF0000070479EEA445F07D011EA5E0FB2
:102EC000BDE8104004BF002100207047BDE810405D
:102ED00070B5FFF7D9FD00BF40DFF63E83F000413B
:102EE000104670470000E0FF43004FEAD30C4FEA62
:102EF0003C0C43401FBF40070CF1605113F0FE4FE4
:102F000070471CF0006F03D100200CF000417047A7
:102F10000CF0004343EA507010B540EACC0000F0DA
:102F2000D2F900BF000000924FEA0001FFF7FABD9E
:102F30004FF000414FF00000A1F500217047000064
:102F400090EA010F48BF81F0004100F11882421A57
:102F50003CBF801A89184FEAD0524FF07F4C1CEAD0
:102F6000410FA2EBD15318BF9CEA026F00F03B80E7
:102F70004FF0004C4CEA00204CEA012121FA03FCFE
:102F800010EB0C0C1ED202F1FF325FEA1C2040EB6A
:102F9000C25038BF70471CF07F0F4FEA400C18BF7B
:102FA000BCF17F4F38BF7047C3F12003994008BF81
:102FB00020F00100BCF17F4F38BF7047A0F1C04046
:102FC00000F0C7B94FEA3C00000A40EBC25028BFEE
:102FD0001CF0FF0F4FEA400CE6D018BFBCF17F4F4A
:102FE00038BF7047EAE79CEA026F05D010EA5C0F31
:102FF00008BF00F00040704710B500F064F900BF52
:1030000064FBBE3E014800F028BA00BF0000C07F4C
:103010004FF47F0C1CEAD0121EBF1CEAD11392EAB7
:103020000C0F93EA0C0F00F0858090EA010F48BF67
:1030300042F4807240F4000C41F400002CF07F4117
:1030400020F07F4000B58142A2EB03020FF2081C82
:10305000ACEB504EC0F100009EF800E04FEA4E0E7F
:1030600000FB0EFC38BF49004FEA2C1C02F5FA02A7
:103070000CFB0EF34FEACE1E4FEA112C4FEAC12192
:103080000EEB635E42EB22420EFB0CFC4FEA1C533C
:1030900000FB03114FEA112C4FEA01310EFB0CFC2F
:1030A0004FEADC4C00FB0C11C14228BF09184CEB65
:1030B00003335DF804EB10EB410143EBC250B2F572
:1030C0007C0F38BF704729D512F0F00F1CBF00F1FC
:1030D000C04000F00040704700818283848586876D
:1030E00088898B8C8D8E8F919293959697999A9CC7
:1030F0009D9FA0A2A3A5A7A8AAACAEB0B2B3B5B736
:10310000B9BCBEC0C2C5C7C9CCCED1D4D7D9DCDF0B
:10311000E2E6E9ECF0F3F7FAFE0000004FEA400CBB
:103120000CF1807CBCF17E4F28BF7047B0F1C040ED
:1031300000F00FB990EA010F0CEAD11348BF42F436
:103140008072624538BF634507D213F47F0F16D0F3
:1031500080EA010000F00040704710B500F0B3F8BD
:10316000097EFC3E00F005B880EA010000F0004056
:10317000704780EA010000F0004000F0EAB812F465
:103180007F0F04BF0248704780EA010000F0E1B8F9
:103190000000C07F10F0004148BF4042B0FA80F309
:1031A00010FA03F2C3F19D030BD051EAC35101EBB6
:1031B0001220530638BF704700F1010008BF20F00D
:1031C000010070474FF47F0C1CEAD0121EBF1CEAAE
:1031D000D11392EA0C0F93EA0C0F00F0478090EAAB
:1031E000010F48BF42F480724FF0004C4CEA0020BF
:1031F0004CEA012102EB0302A0FB0113A2F500023D
:10320000002918BF43F001035B0028BF4FEA3303D6
:1032100042EB22425FEA132C4CEBC2502EBFBCEBB8
:10322000436FB2F57C0F70474FEA036CBCF1004F5F
:1032300008BF20F00100B2F57C0F38BF70470BD5F6
:1032400082F0FF0212F5803FC8BF704700F1C04016
:10325000D8BF00F00040704700F5000C5FEA4C0C4E
:1032600048BF7047B0F1C04000F073B890EA010F5A
:103270000CEAD11348BF42F48072624538BF6345FF
:1032800004D280EA010000F00040704710B500F061
:103290001AF800BF8900013E00F007B800F009B835
:1032A0005FEA410C5FEA1C6C08D080EA010000F084
:1032B00050B85FEA400C5FEA1C6CF6D14FF000405A
:1032C000A0F5800070470EF1020E2EF0030E5EF89E
:1032D000044B244204D44FEA4102B2F17F4F11D88B
:1032E0004FEA4003B3F17F4F0CD80ED14FEAD07CA8
:1032F000B2F17F4F0CEB4C0C0CF1020C08BF4CEB05
:10330000D17C04E04FF0080C01E04FEAD17C0CEBDB
:103310004C0324FA03F404F00704B4F1040C06D2BD
:103320000EEB840CBDE810404CF0010C6047DFE868
:103330000CF0070802024FF00040A0F5800010BD1D
:103340000846420018BFD2F1807288BF00F00040EA
:1033500010BDFF2141EAD050C005704780F0004009
:1033600090EA010F7FF5F3AD81F0004100F007B85E
:1033700090EA010F48BF81F000413FF5E8AD421AE5
:1033800004D882F00042A0EB020011444FEAD05270
:103390004FF07F4C1CEA410FA2EBD15318BF9CEABF
:1033A000026F4AD04FF0004C4CEA00204CEA012159
:1033B00021FA03FCB0EB0C0C0FD412F0FE0F36D048
:1033C0005FEA4C001DD5001240EBC25038BF704779
:1033D0001CF03F0F18BF70470BE0A2F101025FEA3B
:1033E0001C2040EBC25038BF70471CF07F0F18BF45
:1033F0007047C3F12003994014BF401E20F0010024
:10340000704780084FEA122308BF7047B0FA80FC6B
:10341000A2EB0C02CCF1280C60FA0CF093EA122F0C
:1034200004BF00EBC25070474FEAC3707047130AE5
:103430005FEADC1008BF7047F6E79CEA026F04D031
:1034400010EA5C0F08BF0020704710B5FFF73BFF84
:1034500040DFF63E81F0004070470CF00F03092B6F
:1034600008BF082000F07F800A2B0BD0082B18BF64
:10347000704708BF1CF0400F0AD04FF000004FF01B
:10348000000170471CF0400F18BF4FF0004070471C
:103490001CF0100F08D020F0704300F07F4242EA89
:1034A000D3014FEA4370704700F0604021F07F4243
:1034B00042EA000201F07F4040EA727070474FF02C
:1034C000FF0C4CF4E06C1CEA11531CBF9CEA030C8B
:1034D0009445C2BFDA4201EB02517047002B0DD078
:1034E000BCF1000F0FD0002A01F00041A4BF41F051
:1034F000E04141F07F614FF00000704701F0004172
:103500004FF00000704750EA01334FF09B0C18BF9A
:103510004CF0806C7FF4AEA870474FF0FF0212EAC7
:10352000D0521CBF92F0FF038B42C2BFD14200EBCE
:10353000C1507047002A0AD0002B0BD0002900F0A0
:103540000040A4BF40F0FE4040F40000704700F08F
:103550000040704743024FF00B0C18BF4CF0806CDA
:103560007FF450AD70471CF4801F11D01CF4E02F85
:1035700003D06FEACC31490070474FF04050EFF371
:10358000008222F0704242EA000282F30088704713
:103590004FF0000070470102020304050607080906
:1035A0000A0B0C0D0E0F10100000000000000000B0
:1035B00001020304060708090000000001020304D9
:1035C0004FBB610567ACDD3F182D4454FB21E93F3B
:1035D0009BF681D20B73EF3F182D4454FB21F93F2A
:1035E000E2652F227F2B7A3C075C143326A6813CB0
:1035F000BDCBF07A8807703C075C143326A6913C5B
:10360000C4EB98999999C9BF711623FEC671BCBFC6
:103610006D9A74AFF2B0B3BF9AFDDE522DDEADBF2E
:103620002F6C6A2C44B4A2BF0D5555555555D53F46
:10363000FF8300922449C23F6E204CC5CD45B73F61
:10364000513DD0A0660DB13FEB0D76244B7BA93FD9
:1036500011DA22E33AAD903F7836000800000020EE
:103660007800000028010008F036000878000020EB
:103670001807000044010008680000006F12833A38
:10368000A69B443B0000003F0000003F00000000FC
:10369000000000000000000000000000000000002A
:1036A0000000000000000000000000000000803F5B
:1036B00000000000000000000000803F0000803F8C
:1036C00000000000000000000000803F000000003B
:1036D00000000000000000000000000000000000EA
:1036E0000100000010000000000000000024F400B1
:04000005080000ED02
:00000001FF
